{
  "contractName": "Registry",
  "abi": [
    {
      "anonymous": false,
      "inputs": [
        {
          "indexed": false,
          "name": "orgName",
          "type": "bytes32"
        },
        {
          "indexed": true,
          "name": "orgNameIndexed",
          "type": "bytes32"
        }
      ],
      "name": "OrganizationCreated",
      "type": "event"
    },
    {
      "anonymous": false,
      "inputs": [
        {
          "indexed": false,
          "name": "orgName",
          "type": "bytes32"
        },
        {
          "indexed": true,
          "name": "orgNameIndexed",
          "type": "bytes32"
        }
      ],
      "name": "OrganizationModified",
      "type": "event"
    },
    {
      "anonymous": false,
      "inputs": [
        {
          "indexed": false,
          "name": "orgName",
          "type": "bytes32"
        },
        {
          "indexed": true,
          "name": "orgNameIndexed",
          "type": "bytes32"
        }
      ],
      "name": "OrganizationDeleted",
      "type": "event"
    },
    {
      "anonymous": false,
      "inputs": [
        {
          "indexed": false,
          "name": "orgName",
          "type": "bytes32"
        },
        {
          "indexed": false,
          "name": "serviceName",
          "type": "bytes32"
        },
        {
          "indexed": true,
          "name": "orgNameIndexed",
          "type": "bytes32"
        },
        {
          "indexed": true,
          "name": "serviceNameIndexed",
          "type": "bytes32"
        }
      ],
      "name": "ServiceCreated",
      "type": "event"
    },
    {
      "anonymous": false,
      "inputs": [
        {
          "indexed": false,
          "name": "orgName",
          "type": "bytes32"
        },
        {
          "indexed": false,
          "name": "serviceName",
          "type": "bytes32"
        },
        {
          "indexed": true,
          "name": "orgNameIndexed",
          "type": "bytes32"
        },
        {
          "indexed": true,
          "name": "serviceNameIndexed",
          "type": "bytes32"
        }
      ],
      "name": "ServiceModified",
      "type": "event"
    },
    {
      "anonymous": false,
      "inputs": [
        {
          "indexed": false,
          "name": "orgName",
          "type": "bytes32"
        },
        {
          "indexed": false,
          "name": "serviceName",
          "type": "bytes32"
        },
        {
          "indexed": true,
          "name": "orgNameIndexed",
          "type": "bytes32"
        },
        {
          "indexed": true,
          "name": "serviceNameIndexed",
          "type": "bytes32"
        }
      ],
      "name": "ServiceDeleted",
      "type": "event"
    },
    {
      "anonymous": false,
      "inputs": [
        {
          "indexed": false,
          "name": "orgName",
          "type": "bytes32"
        },
        {
          "indexed": false,
          "name": "typeRepositoryName",
          "type": "bytes32"
        },
        {
          "indexed": true,
          "name": "orgNameIndexed",
          "type": "bytes32"
        },
        {
          "indexed": true,
          "name": "typeRepositoryNameIndexed",
          "type": "bytes32"
        }
      ],
      "name": "TypeRepositoryCreated",
      "type": "event"
    },
    {
      "anonymous": false,
      "inputs": [
        {
          "indexed": false,
          "name": "orgName",
          "type": "bytes32"
        },
        {
          "indexed": false,
          "name": "typeRepositoryName",
          "type": "bytes32"
        },
        {
          "indexed": true,
          "name": "orgNameIndexed",
          "type": "bytes32"
        },
        {
          "indexed": true,
          "name": "typeRepositoryNameIndexed",
          "type": "bytes32"
        }
      ],
      "name": "TypeRepositoryModified",
      "type": "event"
    },
    {
      "anonymous": false,
      "inputs": [
        {
          "indexed": false,
          "name": "orgName",
          "type": "bytes32"
        },
        {
          "indexed": false,
          "name": "typeRepositoryName",
          "type": "bytes32"
        },
        {
          "indexed": true,
          "name": "orgNameIndexed",
          "type": "bytes32"
        },
        {
          "indexed": true,
          "name": "typeRepositoryNameIndexed",
          "type": "bytes32"
        }
      ],
      "name": "TypeRepositoryDeleted",
      "type": "event"
    },
    {
      "constant": false,
      "inputs": [
        {
          "name": "orgName",
          "type": "bytes32"
        },
        {
          "name": "members",
          "type": "address[]"
        }
      ],
      "name": "createOrganization",
      "outputs": [],
      "payable": false,
      "stateMutability": "nonpayable",
      "type": "function"
    },
    {
      "constant": false,
      "inputs": [
        {
          "name": "orgName",
          "type": "bytes32"
        },
        {
          "name": "newOwner",
          "type": "address"
        }
      ],
      "name": "changeOrganizationOwner",
      "outputs": [],
      "payable": false,
      "stateMutability": "nonpayable",
      "type": "function"
    },
    {
      "constant": false,
      "inputs": [
        {
          "name": "orgName",
          "type": "bytes32"
        },
        {
          "name": "newMembers",
          "type": "address[]"
        }
      ],
      "name": "addOrganizationMembers",
      "outputs": [],
      "payable": false,
      "stateMutability": "nonpayable",
      "type": "function"
    },
    {
      "constant": false,
      "inputs": [
        {
          "name": "orgName",
          "type": "bytes32"
        },
        {
          "name": "existingMembers",
          "type": "address[]"
        }
      ],
      "name": "removeOrganizationMembers",
      "outputs": [],
      "payable": false,
      "stateMutability": "nonpayable",
      "type": "function"
    },
    {
      "constant": false,
      "inputs": [
        {
          "name": "orgName",
          "type": "bytes32"
        }
      ],
      "name": "deleteOrganization",
      "outputs": [],
      "payable": false,
      "stateMutability": "nonpayable",
      "type": "function"
    },
    {
      "constant": false,
      "inputs": [
        {
          "name": "orgName",
          "type": "bytes32"
        },
        {
          "name": "serviceName",
          "type": "bytes32"
        },
        {
          "name": "servicePath",
          "type": "bytes32"
        },
        {
          "name": "agentAddress",
          "type": "address"
        },
        {
          "name": "tags",
          "type": "bytes32[]"
        }
      ],
      "name": "createServiceRegistration",
      "outputs": [],
      "payable": false,
      "stateMutability": "nonpayable",
      "type": "function"
    },
    {
      "constant": false,
      "inputs": [
        {
          "name": "orgName",
          "type": "bytes32"
        },
        {
          "name": "serviceName",
          "type": "bytes32"
        },
        {
          "name": "servicePath",
          "type": "bytes32"
        },
        {
          "name": "agentAddress",
          "type": "address"
        }
      ],
      "name": "updateServiceRegistration",
      "outputs": [],
      "payable": false,
      "stateMutability": "nonpayable",
      "type": "function"
    },
    {
      "constant": false,
      "inputs": [
        {
          "name": "orgName",
          "type": "bytes32"
        },
        {
          "name": "serviceName",
          "type": "bytes32"
        },
        {
          "name": "tags",
          "type": "bytes32[]"
        }
      ],
      "name": "addTagsToServiceRegistration",
      "outputs": [],
      "payable": false,
      "stateMutability": "nonpayable",
      "type": "function"
    },
    {
      "constant": false,
      "inputs": [
        {
          "name": "orgName",
          "type": "bytes32"
        },
        {
          "name": "serviceName",
          "type": "bytes32"
        },
        {
          "name": "metadataIPFSHash",
          "type": "bytes"
        }
      ],
      "name": "setMetadataIPFSHashInServiceRegistration",
      "outputs": [],
      "payable": false,
      "stateMutability": "nonpayable",
      "type": "function"
    },
    {
      "constant": false,
      "inputs": [
        {
          "name": "orgName",
          "type": "bytes32"
        },
        {
          "name": "serviceName",
          "type": "bytes32"
        },
        {
          "name": "tags",
          "type": "bytes32[]"
        }
      ],
      "name": "removeTagsFromServiceRegistration",
      "outputs": [],
      "payable": false,
      "stateMutability": "nonpayable",
      "type": "function"
    },
    {
      "constant": false,
      "inputs": [
        {
          "name": "orgName",
          "type": "bytes32"
        },
        {
          "name": "serviceName",
          "type": "bytes32"
        }
      ],
      "name": "deleteServiceRegistration",
      "outputs": [],
      "payable": false,
      "stateMutability": "nonpayable",
      "type": "function"
    },
    {
      "constant": false,
      "inputs": [
        {
          "name": "orgName",
          "type": "bytes32"
        },
        {
          "name": "repositoryName",
          "type": "bytes32"
        },
        {
          "name": "repositoryPath",
          "type": "bytes32"
        },
        {
          "name": "repositoryURI",
          "type": "bytes"
        },
        {
          "name": "tags",
          "type": "bytes32[]"
        }
      ],
      "name": "createTypeRepositoryRegistration",
      "outputs": [],
      "payable": false,
      "stateMutability": "nonpayable",
      "type": "function"
    },
    {
      "constant": false,
      "inputs": [
        {
          "name": "orgName",
          "type": "bytes32"
        },
        {
          "name": "repositoryName",
          "type": "bytes32"
        },
        {
          "name": "repositoryPath",
          "type": "bytes32"
        },
        {
          "name": "repositoryURI",
          "type": "bytes"
        }
      ],
      "name": "updateTypeRepositoryRegistration",
      "outputs": [],
      "payable": false,
      "stateMutability": "nonpayable",
      "type": "function"
    },
    {
      "constant": false,
      "inputs": [
        {
          "name": "orgName",
          "type": "bytes32"
        },
        {
          "name": "repositoryName",
          "type": "bytes32"
        },
        {
          "name": "tags",
          "type": "bytes32[]"
        }
      ],
      "name": "addTagsToTypeRepositoryRegistration",
      "outputs": [],
      "payable": false,
      "stateMutability": "nonpayable",
      "type": "function"
    },
    {
      "constant": false,
      "inputs": [
        {
          "name": "orgName",
          "type": "bytes32"
        },
        {
          "name": "repositoryName",
          "type": "bytes32"
        },
        {
          "name": "tags",
          "type": "bytes32[]"
        }
      ],
      "name": "removeTagsFromTypeRepositoryRegistration",
      "outputs": [],
      "payable": false,
      "stateMutability": "nonpayable",
      "type": "function"
    },
    {
      "constant": false,
      "inputs": [
        {
          "name": "orgName",
          "type": "bytes32"
        },
        {
          "name": "repositoryName",
          "type": "bytes32"
        }
      ],
      "name": "deleteTypeRepositoryRegistration",
      "outputs": [],
      "payable": false,
      "stateMutability": "nonpayable",
      "type": "function"
    },
    {
      "constant": true,
      "inputs": [],
      "name": "listOrganizations",
      "outputs": [
        {
          "name": "orgNames",
          "type": "bytes32[]"
        }
      ],
      "payable": false,
      "stateMutability": "view",
      "type": "function"
    },
    {
      "constant": true,
      "inputs": [
        {
          "name": "orgName",
          "type": "bytes32"
        }
      ],
      "name": "getOrganizationByName",
      "outputs": [
        {
          "name": "found",
          "type": "bool"
        },
        {
          "name": "name",
          "type": "bytes32"
        },
        {
          "name": "owner",
          "type": "address"
        },
        {
          "name": "members",
          "type": "address[]"
        },
        {
          "name": "serviceNames",
          "type": "bytes32[]"
        },
        {
          "name": "repositoryNames",
          "type": "bytes32[]"
        }
      ],
      "payable": false,
      "stateMutability": "view",
      "type": "function"
    },
    {
      "constant": true,
      "inputs": [
        {
          "name": "orgName",
          "type": "bytes32"
        }
      ],
      "name": "listServicesForOrganization",
      "outputs": [
        {
          "name": "found",
          "type": "bool"
        },
        {
          "name": "serviceNames",
          "type": "bytes32[]"
        }
      ],
      "payable": false,
      "stateMutability": "view",
      "type": "function"
    },
    {
      "constant": true,
      "inputs": [
        {
          "name": "orgName",
          "type": "bytes32"
        },
        {
          "name": "serviceName",
          "type": "bytes32"
        }
      ],
      "name": "getServiceRegistrationByName",
      "outputs": [
        {
          "name": "found",
          "type": "bool"
        },
        {
          "name": "name",
          "type": "bytes32"
        },
        {
          "name": "path",
          "type": "bytes32"
        },
        {
          "name": "agentAddress",
          "type": "address"
        },
        {
          "name": "tags",
          "type": "bytes32[]"
        }
      ],
      "payable": false,
      "stateMutability": "view",
      "type": "function"
    },
    {
      "constant": true,
      "inputs": [
        {
          "name": "orgName",
          "type": "bytes32"
        },
        {
          "name": "serviceName",
          "type": "bytes32"
        }
      ],
      "name": "getMetadataIPFSHash",
      "outputs": [
        {
          "name": "found",
          "type": "bool"
        },
        {
          "name": "metadataIPFSHash",
          "type": "bytes"
        }
      ],
      "payable": false,
      "stateMutability": "view",
      "type": "function"
    },
    {
      "constant": true,
      "inputs": [
        {
          "name": "orgName",
          "type": "bytes32"
        }
      ],
      "name": "listTypeRepositoriesForOrganization",
      "outputs": [
        {
          "name": "found",
          "type": "bool"
        },
        {
          "name": "repositoryNames",
          "type": "bytes32[]"
        }
      ],
      "payable": false,
      "stateMutability": "view",
      "type": "function"
    },
    {
      "constant": true,
      "inputs": [
        {
          "name": "orgName",
          "type": "bytes32"
        },
        {
          "name": "repositoryName",
          "type": "bytes32"
        }
      ],
      "name": "getTypeRepositoryByName",
      "outputs": [
        {
          "name": "found",
          "type": "bool"
        },
        {
          "name": "name",
          "type": "bytes32"
        },
        {
          "name": "path",
          "type": "bytes32"
        },
        {
          "name": "uri",
          "type": "bytes"
        },
        {
          "name": "tags",
          "type": "bytes32[]"
        }
      ],
      "payable": false,
      "stateMutability": "view",
      "type": "function"
    },
    {
      "constant": true,
      "inputs": [],
      "name": "listServiceTags",
      "outputs": [
        {
          "name": "tags",
          "type": "bytes32[]"
        }
      ],
      "payable": false,
      "stateMutability": "view",
      "type": "function"
    },
    {
      "constant": true,
      "inputs": [
        {
          "name": "tag",
          "type": "bytes32"
        }
      ],
      "name": "listServicesForTag",
      "outputs": [
        {
          "name": "orgNames",
          "type": "bytes32[]"
        },
        {
          "name": "serviceNames",
          "type": "bytes32[]"
        }
      ],
      "payable": false,
      "stateMutability": "view",
      "type": "function"
    },
    {
      "constant": true,
      "inputs": [],
      "name": "listTypeRepositoryTags",
      "outputs": [
        {
          "name": "tags",
          "type": "bytes32[]"
        }
      ],
      "payable": false,
      "stateMutability": "view",
      "type": "function"
    },
    {
      "constant": true,
      "inputs": [
        {
          "name": "tag",
          "type": "bytes32"
        }
      ],
      "name": "listTypeRepositoriesForTag",
      "outputs": [
        {
          "name": "orgNames",
          "type": "bytes32[]"
        },
        {
          "name": "repositoryNames",
          "type": "bytes32[]"
        }
      ],
      "payable": false,
      "stateMutability": "view",
      "type": "function"
    },
    {
      "constant": true,
      "inputs": [
        {
          "name": "interfaceID",
          "type": "bytes4"
        }
      ],
      "name": "supportsInterface",
      "outputs": [
        {
          "name": "",
          "type": "bool"
        }
      ],
      "payable": false,
      "stateMutability": "view",
      "type": "function"
    }
  ],
  "bytecode": "0x608060405234801561001057600080fd5b50613565806100206000396000f3006080604052600436106101695763ffffffff7c0100000000000000000000000000000000000000000000000000000000600035041663013be2e0811461016e57806301ffc9a7146101985780632cd49849146101e3578063340d84e51461030c5780633a2cb860146103715780633d408ac0146103e8578063520e855b146104815780635a1589d5146104965780636928848d146104c2578063692c8a92146104da578063781d69d21461058b57806383c83b79146105af5780638bd79dc8146105d95780638e07e97714610611578063981859ea1461063957806399a0b0ec146106615780639aad8d9d146106ff578063acd298d31461071a578063afab986c14610732578063b72516551461075a578063bb82354f1461076f578063ca62968a14610787578063ca6993d4146107af578063ca97758c146107e8578063d2e544f714610803578063d9219d2814610827578063e443852d1461084b578063e5ae53e21461086f575b600080fd5b34801561017a57600080fd5b5061019660048035906024803591604435918201910135610960565b005b3480156101a457600080fd5b506101cf7bffffffffffffffffffffffffffffffffffffffffffffffffffffffff19600435166109ff565b604080519115158252519081900360200190f35b3480156101ef57600080fd5b506101fb600435610a92565b6040518087151515158152602001866000191660001916815260200185600160a060020a0316600160a060020a03168152602001806020018060200180602001848103845287818151815260200191508051906020019060200280838360005b8381101561027357818101518382015260200161025b565b50505050905001848103835286818151815260200191508051906020019060200280838360005b838110156102b257818101518382015260200161029a565b50505050905001848103825285818151815260200191508051906020019060200280838360005b838110156102f15781810151838201526020016102d9565b50505050905001995050505050505050505060405180910390f35b34801561031857600080fd5b50610321610c10565b60408051602080825283518183015283519192839290830191858101910280838360005b8381101561035d578181015183820152602001610345565b505050509050019250505060405180910390f35b34801561037d57600080fd5b50610389600435610c6a565b604051808315151515815260200180602001828103825283818151815260200191508051906020019060200280838360005b838110156103d35781810151838201526020016103bb565b50505050905001935050505060405180910390f35b3480156103f457600080fd5b50610403600435602435610cf3565b6040805186151581526020808201879052918101859052600160a060020a038416606082015260a06080820181815284519183019190915283519192909160c0840191858101910280838360005b83811015610469578181015183820152602001610451565b50505050905001965050505050505060405180910390f35b34801561048d57600080fd5b50610321610ddd565b3480156104a257600080fd5b506101966004803590602480359160443591606435908101910135610e34565b3480156104ce57600080fd5b50610196600435610ece565b3480156104e657600080fd5b506104f260043561114a565b604051808060200180602001838103835285818151815260200191508051906020019060200280838360005b8381101561053657818101518382015260200161051e565b50505050905001838103825284818151815260200191508051906020019060200280838360005b8381101561057557818101518382015260200161055d565b5050505090500194505050505060405180910390f35b34801561059757600080fd5b50610196600480359060248035908101910135611217565b3480156105bb57600080fd5b50610196600435602435604435600160a060020a036064351661138f565b3480156105e557600080fd5b506101966004803590602480359160443591606435808201929081013591608435908101910135611434565b34801561061d57600080fd5b50610196600480359060248035916044359182019101356115ba565b34801561064557600080fd5b5061019660048035906024803591604435918201910135611613565b34801561066d57600080fd5b5061067c600435602435611666565b604051808315151515815260200180602001828103825283818151815260200191508051906020019080838360005b838110156106c35781810151838201526020016106ab565b50505050905090810190601f1680156106f05780820380516001836020036101000a031916815260200191505b50935050505060405180910390f35b34801561070b57600080fd5b50610196600435602435611765565b34801561072657600080fd5b506104f26004356117d4565b34801561073e57600080fd5b50610196600480359060248035916044359182019101356118a1565b34801561076657600080fd5b50610321611930565b34801561077b57600080fd5b50610389600435611987565b34801561079357600080fd5b5061019660048035906024803591604435918201910135611a0d565b3480156107bb57600080fd5b506101966004803590602480359160443591600160a060020a036064351691608435918201910135611a66565b3480156107f457600080fd5b50610196600435602435611bf8565b34801561080f57600080fd5b50610196600480359060248035908101910135611c67565b34801561083357600080fd5b50610196600480359060248035908101910135611cf4565b34801561085757600080fd5b50610196600435600160a060020a0360243516611d7c565b34801561087b57600080fd5b5061088a600435602435611df6565b604080518615158152602080820187905291810185905260a060608201818152855191830191909152845191929091608084019160c08501919087019080838360005b838110156108e55781810151838201526020016108cd565b50505050905090810190601f1680156109125780820380516001836020036101000a031916815260200191505b508381038252845181528451602091820191808701910280838360005b8381101561094757818101518382015260200161092f565b5050505090500197505050505050505060405180910390f35b600061096d856001611f72565b61097885600161204a565b610984858560016120eb565b5060005b818110156109b9576109b185858585858181106109a157fe5b90506020020135600019166121e0565b600101610988565b60408051868152602081018690528151869288927f8eac834748d0bff9050998b0d24883ee990cc806d1999e28982f9e871a7175e4929081900390910190a35050505050565b60007bffffffffffffffffffffffffffffffffffffffffffffffffffffffff1982167f01ffc9a7000000000000000000000000000000000000000000000000000000001480610a8c57507fbd523993000000000000000000000000000000000000000000000000000000007bffffffffffffffffffffffffffffffffffffffffffffffffffffffff198316145b92915050565b60008181526001602052604081205481908190606090819081901515610abb5760009550610c07565b60008781526001602081815260409283902080548184015460029092018054865181860281018601909752808752949b50909950600160a060020a0390911697509190830182828015610b3757602002820191906000526020600020905b8154600160a060020a03168152600190910190602001808311610b19575b50505060008a81526001602090815260409182902060040180548351818402810184019094528084529598509194919350909150830182828015610b9b57602002820191906000526020600020905b81548152600190910190602001808311610b86575b50505060008a81526001602090815260409182902060050180548351818402810184019094528084529597509194919350909150830182828015610bff57602002820191906000526020600020905b81548152600190910190602001808311610bea575b505050505090505b91939550919395565b60606000805480602002602001604051908101604052809291908181526020018280548015610c5f57602002820191906000526020600020905b81548152600190910190602001808311610c4a575b505050505090505b90565b6000818152600160205260408120546060901515610c8b5760009150610cee565b60008381526001602081815260409283902060040180548451818402810184019095528085529295509190830182828015610ce657602002820191906000526020600020905b81548152600190910190602001808311610cd1575b505050505090505b915091565b6000828152600160205260408120548190819081906060901515610d1a5760009450610dd3565b60008781526001602090815260408083208984526006019091529020541515610d465760009450610dd3565b60008781526001602081815260408084208a8552600601825292839020805481840154600283015460049093018054875181870281018701909852808852959b509199509750600160a060020a0390911695509190830182828015610dcb57602002820191906000526020600020905b81548152600190910190602001808311610db6575b505050505090505b9295509295909350565b60606003805480602002602001604051908101604052809291908181526020018280548015610c5f576020028201919060005260206000209081548152600190910190602001808311610c4a575050505050905090565b610e3f856001611f72565b610e4a85600161204a565b610e56858560016124db565b6000858152600160208181526040808420888552600701909152909120908101849055610e879060020183836131f7565b5060408051868152602081018690528151869288927f7c2e89b90764ba2604d5bff4cd9ac4bef2996f29cbb1f1dd8c6a636e74cd1393929081900390910190a35050505050565b6000806000806000610ee1866001611f72565b610eec86600061204a565b60008681526001602052604090206004015494505b6000851115610f4d5760008681526001602052604090206004018054610f419188916000198901908110610f3157fe5b90600052602060002001546125c6565b60001990940193610f01565b60008681526001602052604090206005015493505b6000841115610fae5760008681526001602052604090206005018054610fa29188916000198801908110610f9257fe5b906000526020600020015461279c565b60001990930192610f62565b60008681526001602052604090206002015492505b6000831115611019576000868152600160205260409020600201805461100d9188916000198701908110610ff357fe5b600091825260209091200154600160a060020a031661295f565b60001990920191610fc3565b6000868152600160205260408120600801548154909350600019810190811061103e57fe5b600091825260208220015481549092508291908490811061105b57fe5b600091825260209091200154146110a0578060008381548110151561107c57fe5b60009182526020808320909101929092558281526001909152604090206008018290555b60008054906110b3906000198301613275565b50600086815260016020819052604082208281559081018054600160a060020a0319169055906110e66002830182613299565b6110f4600483016000613299565b611102600583016000613299565b5060006008919091015560408051878152905187917f2fec604edf7b107514e5ecd3e21bd55c9e06d72bca4b46784b6ea51f6ed3415e919081900360200190a2505050505050565b60008181526005602090815260409182902060010180548351818402810184019094528084526060938493909291908301828280156111a957602002820191906000526020600020905b81548152600190910190602001808311611194575b50505060008681526005602090815260409182902060020180548351818402810184019094528084529597509194919350909150830182828015610ce6576020028201919060005260206000209081548152600190910190602001808311610cd15750505050509050915091565b61121f6132ba565b61122a846000611f72565b60008481526001602081815260409283902084518155848201519281018054600160a060020a031916600160a060020a0390941693909317909255918301518051849361127e9260028501929101906132fd565b506060820151805161129a91600484019160209091019061335e565b50608082015180516112b691600584019160209091019061335e565b5060a0919091015160089182015560008581526001602081815260408084208981558084018054600160a060020a031916331790558454950185905591840183559180527f290decd9548b62a8d60345a988386fc84ba6bc95484008f6362f93160ef3e563909201869055815184820281810183019093528481526113539287928791879182919085019084908082843750612ae1945050505050565b60408051858152905185917fa7dfd3eb77f437e0b5bce636b5ce7c9f191c1ca3d57c858702ef3c6f58f88f58919081900360200190a250505050565b61139a846001611f72565b6113a584600161204a565b6113b1848460016120eb565b600084815260016020818152604080842087855260060182529283902091820185905560029091018054600160a060020a031916600160a060020a03851617905581518681529081018590528151859287927f8eac834748d0bff9050998b0d24883ee990cc806d1999e28982f9e871a7175e4929081900390910190a350505050565b61143c61339b565b6000611449896001611f72565b61145489600161204a565b611460898960006124db565b60008981526001602081815260408084208c855260070182529283902085518155818601519281019290925591840151805185936114a59260028501929101906133d1565b50606082015180516114c191600384019160209091019061335e565b506080919091015160059091015560008981526001602081815260408084208c85526007019091529091208981559081018890556115039060020187876131f7565b50506000888152600160208181526040808420600580820180548e88526007909301855292862001819055838352928301815583528220018890555b8281101561157057611568898986868581811061155857fe5b9050602002013560001916612bf4565b60010161153f565b604080518a8152602081018a905281518a928c927ffdf088387a74ee06fdb015aa7641d783fc22af31bf7465a5f24c3187be1f3cc1929081900390910190a3505050505050505050565b60006115c7856001611f72565b6115d285600161204a565b6115de858560016120eb565b5060005b818110156109b95761160b85858585858181106115fb57fe5b9050602002013560001916612d79565b6001016115e2565b61161e846001611f72565b61162984600161204a565b611635848460016120eb565b6000848152600160209081526040808320868452600601909152902061165f9060030183836131f7565b5050505050565b6000828152600160205260408120546060901515611687576000915061175e565b600084815260016020908152604080832086845260060190915290205415156116b3576000915061175e565b600084815260016020818152604080842087855260060182529283902060030180548451601f60026101008488161502600019019093169290920491820184900484028101840190955280855292955091908301828280156117565780601f1061172b57610100808354040283529160200191611756565b820191906000526020600020905b81548152906001019060200180831161173957829003601f168201915b505050505090505b9250929050565b611770826001611f72565b61177b82600161204a565b611787828260016124db565b611791828261279c565b60408051838152602081018390528151839285927f16c7b1c2404a62c18be3f617567ce98a1f145920f466ae71968b19dc95e131c6929081900390910190a35050565b600081815260046020908152604091829020600101805483518184028101840190945280845260609384939092919083018282801561183357602002820191906000526020600020905b8154815260019091019060200180831161181e575b50505060008681526004602090815260409182902060020180548351818402810184019094528084529597509194919350909150830182828015610ce6576020028201919060005260206000209081548152600190910190602001808311610cd15750505050509050915091565b60006118ae856001611f72565b6118b985600161204a565b6118c5858560016124db565b5060005b818110156118ea576118e2858585858581811061155857fe5b6001016118c9565b60408051868152602081018690528151869288927f7c2e89b90764ba2604d5bff4cd9ac4bef2996f29cbb1f1dd8c6a636e74cd1393929081900390910190a35050505050565b60606002805480602002602001604051908101604052809291908181526020018280548015610c5f576020028201919060005260206000209081548152600190910190602001808311610c4a575050505050905090565b60008181526001602052604081205460609015156119a85760009150610cee565b60008381526001602081815260409283902060050180548451818402810184019095528085529295509190830182828015610ce6576020028201919060005260206000209081548152600190910190602001808311610cd15750505050509050915091565b6000611a1a856001611f72565b611a2585600161204a565b611a31858560016124db565b5060005b818110156118ea57611a5e8585858585818110611a4e57fe5b9050602002013560001916612efd565b600101611a35565b611a6e61343f565b6000611a7b886001611f72565b611a8688600161204a565b611a92888860006120eb565b60008881526001602081815260408084208b855260060182529283902085518155858201519281019290925591840151600282018054600160a060020a031916600160a060020a03909216919091179055606084015180518593611afd9260038501929101906133d1565b5060808201518051611b1991600484019160209091019061335e565b5060a0919091015160069182015560008981526001602081815260408084208c855280860183529084208c81558084018c9055600281018054600160a060020a031916600160a060020a038d161790556004909101805491909501819055828252918201845592825291812090910188905590505b82811015611baf57611ba788888686858181106115fb57fe5b600101611b8e565b6040805189815260208101899052815189928b927f4670f2c90b46e7b693c9ab740ba702ff4d965335ac7e143195dc6a3b46c005ad929081900390910190a35050505050505050565b611c03826001611f72565b611c0e82600161204a565b611c1a828260016120eb565b611c2482826125c6565b60408051838152602081018390528151839285927f88eeccab290fa3695236eaa7ab0e67bf7edebbc2f497cab9fbd069a1c3eaf644929081900390910190a35050565b6000611c74846001611f72565b611c7f84600161204a565b5060005b81811015611cb857611cb084848484818110611c9b57fe5b90506020020135600160a060020a031661295f565b600101611c83565b60408051858152905185917f42b976a5690eab65ee7d8595ff5695453a372c6dab6642dc798ae601c75db07d919081900360200190a250505050565b611cff836001611f72565b611d0a83600161204a565b611d418383838080602002602001604051908101604052809392919081815260200183836020028082843750612ae1945050505050565b60408051848152905184917f42b976a5690eab65ee7d8595ff5695453a372c6dab6642dc798ae601c75db07d919081900360200190a2505050565b611d87826001611f72565b611d9282600061204a565b6000828152600160208181526040928390209091018054600160a060020a031916600160a060020a0385161790558151848152915184927f42b976a5690eab65ee7d8595ff5695453a372c6dab6642dc798ae601c75db07d92908290030190a25050565b6000828152600160205260408120548190819060609081901515611e1d5760009450610dd3565b60008781526001602090815260408083208984526007019091529020541515611e495760009450610dd3565b60008781526001602081815260408084208a85526007018252928390208083015460029182018054865160001982881615610100020190911693909304601f81018590048502840185019096528583529399508a985096509290830182828015611ef45780601f10611ec957610100808354040283529160200191611ef4565b820191906000526020600020905b815481529060010190602001808311611ed757829003601f168201915b50505060008a81526001602090815260408083208c845260070182529182902060030180548351818402810184019094528084529597509194919350909150830182828015610dcb576020028201919060005260206000209081548152600190910190602001808311610db657505050505090509295509295909350565b8015611fe2576000828152600160205260409020541515611fdd576040805160e560020a62461bcd02815260206004820152601260248201527f6f726720646f6573206e6f742065786973740000000000000000000000000000604482015290519081900360640190fd5b612046565b60008281526001602052604090205415612046576040805160e560020a62461bcd02815260206004820152601260248201527f6f726720616c7265616479206578697374730000000000000000000000000000604482015290519081900360640190fd5b5050565b60008281526001602081905260409091200154600160a060020a0316331480612095575080801561209557506000828152600160209081526040808320338452600301909152812054115b1515612046576040805160e560020a62461bcd02815260206004820152601760248201527f756e617574686f72697a656420696e766f636174696f6e000000000000000000604482015290519081900360640190fd5b80156121695760008381526001602090815260408083208584526006019091529020541515612164576040805160e560020a62461bcd02815260206004820152601660248201527f7365727669636520646f6573206e6f7420657869737400000000000000000000604482015290519081900360640190fd5b6121db565b6000838152600160209081526040808320858452600601909152902054156121db576040805160e560020a62461bcd02815260206004820152601660248201527f7365727669636520616c72656164792065786973747300000000000000000000604482015290519081900360640190fd5b505050565b600083815260016020908152604080832085845260060182528083208484526005019091528120548190819081908190156124d15760008881526001602081815260408084208b85526006018083528185208b865260058101845291852090930154938b9052919052600401805491965090600019810190811061226057fe5b60009182526020808320909101548a83526001825260408084208b85526006019092529120600401549094506000190185146122fe5760008881526001602090815260408083208a845260060190915290206004018054859190879081106122c457fe5b6000918252602080832090910192909255898152600180835260408083208b84526006018452808320888452600501909352919020018590555b60008881526001602090815260408083208a8452600601909152902060040180549061232e906000198301613275565b5060008881526001602081815260408084208b855260060182528084208a85526005018252808420600201546004909252909220015490955060001901925082851461245657600086815260046020526040902060010180548490811061239157fe5b600091825260208083209091015488835260049091526040909120600201805491935090849081106123bf57fe5b60009182526020808320909101548883526004909152604090912060010180549192508391879081106123ee57fe5b600091825260208083209091019290925587815260049091526040902060020180548291908790811061241d57fe5b60009182526020808320909101929092558381526001825260408082208483526006018352808220898352600501909252206002018590555b6000868152600460205260409020600101805490612478906000198301613275565b50600086815260046020526040902060020180549061249b906000198301613275565b5060008881526001602081815260408084208b855260060182528084208a85526005019091528220828155908101829055600201555b5050505050505050565b80156125545760008381526001602090815260408083208584526007019091529020541515612164576040805160e560020a62461bcd02815260206004820152601860248201527f74797065207265706f20646f6573206e6f742065786973740000000000000000604482015290519081900360640190fd5b6000838152600160209081526040808320858452600701909152902054156121db576040805160e560020a62461bcd02815260206004820152601860248201527f74797065207265706f20616c7265616479206578697374730000000000000000604482015290519081900360640190fd5b600082815260016020908152604080832084845260060190915281206004015490805b60008311156126465760008581526001602090815260408083208784526006019091529020600401805461263a918791879190600019880190811061262a57fe5b90600052602060002001546121e0565b600019909201916125e9565b6000858152600160208181526040808420888552600680820184529185209091015493899052919052600401805491935090600019810190811061268657fe5b60009182526020808320909101548783526001909152604090912060040180549192508291849081106126b557fe5b600091825260209091200154146127155760008581526001602052604090206004018054829190849081106126e657fe5b600091825260208083209091019290925586815260018252604080822084835260069081019093529020018290555b6000858152600160205260409020600401805490612737906000198301613275565b5060008581526001602081815260408084208885526006019091528220828155908101829055600281018054600160a060020a03191690559061277d6003830182613473565b61278b600483016000613299565b600682016000905550505050505050565b600082815260016020908152604080832084845260070190915281206003015490805b600083111561281c57600085815260016020908152604080832087845260070190915290206003018054612810918791879190600019880190811061280057fe5b9060005260206000200154612efd565b600019909201916127bf565b6000858152600160208181526040808420888552600781018352908420600590810154948a90529290915201805491935090600019810190811061285c57fe5b600091825260208083209091015487835260019091526040909120600501805491925082918490811061288b57fe5b600091825260209091200154146128ea5760008581526001602052604090206005018054829190849081106128bc57fe5b6000918252602080832090910192909255868152600182526040808220848352600701909252206005018290555b600085815260016020526040902060050180549061290c906000198301613275565b5060008581526001602081815260408084208885526007019091528220828155908101829055906129406002830182613473565b61294e600383016000613299565b600582016000905550505050505050565b6000828152600160209081526040808320600160a060020a0385168452600301909152812054819015612adb576000848152600160208181526040808420600160a060020a0388168552600381018352908420549388905291905260020180549193509060001981019081106129d157fe5b6000918252602080832090910154868352600190915260409091206002018054600160a060020a03909216925082916000198501908110612a0e57fe5b600091825260209091200154600160a060020a031614612a9157600084815260016020526040902060020180548291906000198501908110612a4c57fe5b60009182526020808320919091018054600160a060020a031916600160a060020a03948516179055868252600181526040808320938516835260039093019052208290555b6000848152600160205260409020600201805490612ab3906000198301613275565b506000848152600160209081526040808320600160a060020a03871684526003019091528120555b50505050565b60005b81518110156121db576000838152600160205260408120835160039091019190849084908110612b1057fe5b90602001906020020151600160a060020a0316600160a060020a031681526020019081526020016000205460001415612bec5760008381526001602052604090208251600290910190839083908110612b6557fe5b60209081029190910181015182546001808201855560009485528385209091018054600160a060020a031916600160a060020a039093169290921790915585835290526040812060028101548451909260039092019190859085908110612bc857fe5b6020908102909101810151600160a060020a03168252810191909152604001600020555b600101612ae4565b612bfc6134b7565b612c046134d7565b60008581526001602090815260408083208784526007018252808320868452600401909152902054151561165f5760008581526001602081815260408084208885526007018252808420878552600481018352818520878401518186019081558884015160028301908155918a9055600390920180549092556005845291852080850154909255805493840181558452908320909101859055908490525460ff161515612d3c57600180825260008481526005602090815260409091208351815460ff191690151517815581840151805185949293612ce793850192019061335e565b5060408201518051612d0391600284019160209091019061335e565b5050600380546001810182556000919091527fc2575a0e9e593c00f959f8c92f12db2869c3395a3b0502d05e2516446f71f85b01849055505b5050600090815260056020908152604082206001808201805480830182559085528385200195909555600201805494850181558252902090910155565b612d816134b7565b612d896134d7565b60008581526001602090815260408083208784526006018252808320868452600501909152902054151561165f5760008581526001602081815260408084208885526006018252808420878552600581018352818520878401518186019081558884015160028301908155918a90556004928301805490915591845291852080850154909255805493840181558452908320909101859055908490525460ff161515612ec057600180825260008481526004602090815260409091208351815460ff191690151517815581840151805185949293612e6b93850192019061335e565b5060408201518051612e8791600284019160209091019061335e565b5050600280546001810182556000919091527f405787fa12a823e0f2b7631cc41b3ba8828b3321ca811111fa75cd3aa3bb5ace01849055505b5050600090815260046020908152604082206001808201805480830182559085528385200195909555600201805494850181558252902090910155565b600083815260016020908152604080832085845260070182528083208484526004019091528120548190819081908190156124d15760008881526001602081815260408084208b85526007018083528185208b865260048101845291852090930154938b90529190526003018054919650906000198101908110612f7d57fe5b60009182526020808320909101548a83526001825260408084208b855260070190925291206003015490945060001901851461301b5760008881526001602090815260408083208a84526007019091529020600301805485919087908110612fe157fe5b6000918252602080832090910192909255898152600180835260408083208b84526007018452808320888452600401909352919020018590555b60008881526001602090815260408083208a8452600701909152902060030180549061304b906000198301613275565b5060008881526001602081815260408084208b855260070182528084208a8552600401825280842060020154600590925290922001549095506000190192508285146131735760008681526005602052604090206001018054849081106130ae57fe5b600091825260208083209091015488835260059091526040909120600201805491935090849081106130dc57fe5b600091825260208083209091015488835260059091526040909120600101805491925083918790811061310b57fe5b600091825260208083209091019290925587815260059091526040902060020180548291908790811061313a57fe5b60009182526020808320909101929092558381526001825260408082208483526007018352808220898352600401909252206002018590555b6000868152600560205260409020600101805490613195906000198301613275565b5060008681526005602052604090206002018054906131b8906000198301613275565b5060008881526001602081815260408084208b855260070182528084208a85526004019091528220828155908101829055600201555050505050505050565b828054600181600116156101000203166002900490600052602060002090601f016020900481019282601f106132385782800160ff19823516178555613265565b82800160010185558215613265579182015b8281111561326557823582559160200191906001019061324a565b506132719291506134fb565b5090565b8154818355818111156121db576000838152602090206121db9181019083016134fb565b50805460008255906000526020600020908101906132b791906134fb565b50565b60c060405190810160405280600080191681526020016000600160a060020a03168152602001606081526020016060815260200160608152602001600081525090565b828054828255906000526020600020908101928215613352579160200282015b828111156133525782518254600160a060020a031916600160a060020a0390911617825560209092019160019091019061331d565b50613271929150613515565b828054828255906000526020600020908101928215613265579160200282015b82811115613265578251825560209092019160019091019061337e565b60a06040519081016040528060008019168152602001600080191681526020016060815260200160608152602001600081525090565b828054600181600116156101000203166002900490600052602060002090601f016020900481019282601f1061341257805160ff1916838001178555613265565b82800160010185558215613265579182015b82811115613265578251825591602001919060010190613424565b6040805160c0810182526000808252602082018190529181018290526060808201819052608082015260a081019190915290565b50805460018160011615610100020316600290046000825580601f1061349957506132b7565b601f0160209004906000526020600020908101906132b791906134fb565b604080516060810182526000808252602082018190529181019190915290565b60606040519081016040528060001515815260200160608152602001606081525090565b610c6791905b808211156132715760008155600101613501565b610c6791905b80821115613271578054600160a060020a031916815560010161351b5600a165627a7a7230582001497d28c31651b472b44f44c07bfeef6393bb0a48e8c2719bc633b32bd2f61e0029",
  "source": "pragma solidity ^0.4.24;\n\nimport \"openzeppelin-solidity/contracts/introspection/ERC165.sol\";\nimport \"./IRegistry.sol\";\n\ncontract Registry is IRegistry, ERC165 {\n\n    struct OrganizationRegistration {\n        bytes32 organizationName;\n        address owner;\n\n        // member indexing note:\n        // case (members[someAddress]) of\n        //   0 -> not a member of this org\n        //   n -> member of this org, and memberKeys[n-1] == someAddress\n        address[] memberKeys;\n        mapping(address => uint) members;\n\n        bytes32[] serviceKeys;\n        bytes32[] typeRepoKeys;\n        mapping(bytes32 => ServiceRegistration) servicesByName;\n        mapping(bytes32 => TypeRepositoryRegistration) typeReposByName;\n\n        uint globalOrgIndex;\n    }\n\n    struct ServiceRegistration {\n        bytes32 serviceName;\n        bytes32 servicePath;\n        address agentAddress;\n        bytes   metadataIPFSHash;  // IPFSHash of service metadata (in the case of MPE payment system)\n\n        bytes32[] tags;\n        mapping(bytes32 => Tag) tagsByName;\n\n        uint orgServiceIndex;\n    }\n\n    struct TypeRepositoryRegistration {\n        bytes32 repositoryName;\n        bytes32 repositoryPath;\n        bytes repositoryURI;\n\n        bytes32[] tags;\n        mapping(bytes32 => Tag) tagsByName;\n\n        uint orgTypeRepoIndex;\n    }\n\n    struct Tag {\n        bytes32 tagName;\n        uint itemTagIndex;\n        uint globalTagIndex;\n    }\n\n    struct ServiceOrTypeRepositoryList {\n        bool valid;\n        bytes32[] orgNames;\n        bytes32[] itemNames;\n    }\n\n    bytes32[] orgKeys;\n    mapping(bytes32 => OrganizationRegistration) orgsByName;\n\n    bytes32[] serviceTags;\n    bytes32[] typeRepoTags;\n    mapping(bytes32 => ServiceOrTypeRepositoryList) servicesByTag;\n    mapping(bytes32 => ServiceOrTypeRepositoryList) typeReposByTag;\n\n    /**\n      * @dev Guard function that forces a revert if the tx sender is unauthorized.\n      *      Always authorizes org owner. Can also authorize org members.\n      *\n      * @param membersAllowed if true, revert when sender is non-owner and non-member, else revert when sender is non-owner\n      */\n    function requireAuthorization(bytes32 orgName, bool membersAllowed) internal view {\n        require(msg.sender == orgsByName[orgName].owner || (membersAllowed && orgsByName[orgName].members[msg.sender] > 0)\n            , \"unauthorized invocation\");\n    }\n\n    /**\n      * @dev Guard function that forces a revert if the referenced org does not meet an existence criteria.\n      *\n      * @param exists if true, revert when org does not exist, else revert when org exists\n      */\n    function requireOrgExistenceConstraint(bytes32 orgName, bool exists) internal view {\n        if (exists) {\n            require(orgsByName[orgName].organizationName != bytes32(0x0), \"org does not exist\");\n        } else {\n            require(orgsByName[orgName].organizationName == bytes32(0x0), \"org already exists\");\n        }\n    }\n\n    /**\n      * @dev Guard function that forces a revert if the referenced service does not meet an existence criteria.\n      *\n      * @param exists if true, revert when service does not exist, else revert when service exists\n      */\n    function requireServiceExistenceConstraint(bytes32 orgName, bytes32 serviceName, bool exists) internal view {\n        if (exists) {\n            require(orgsByName[orgName].servicesByName[serviceName].serviceName != bytes32(0x0), \"service does not exist\");\n        } else {\n            require(orgsByName[orgName].servicesByName[serviceName].serviceName == bytes32(0x0), \"service already exists\");\n        }\n    }\n\n    /**\n      * @dev Guard function that forces a revert if the referenced type repository does not meet an existence criteria.\n      *\n      * @param exists if true, revert when type repo does not exist, else revert when type repo exists\n      */\n    function requireTypeRepositoryExistenceConstraint(bytes32 orgName, bytes32 repositoryName, bool exists) internal view {\n        if (exists) {\n            require(orgsByName[orgName].typeReposByName[repositoryName].repositoryName != bytes32(0x0), \"type repo does not exist\");\n        } else {\n            require(orgsByName[orgName].typeReposByName[repositoryName].repositoryName == bytes32(0x0), \"type repo already exists\");\n        }\n    }\n\n    //    ___                        _          _   _                   __  __                 _\n    //   / _ \\ _ __ __ _  __ _ _ __ (_)______ _| |_(_) ___  _ __       |  \\/  | __ _ _ __ ___ | |_\n    //  | | | | '__/ _` |/ _` | '_ \\| |_  / _` | __| |/ _ \\| '_ \\      | |\\/| |/ _` | '_ ` _ \\| __|\n    //  | |_| | | | (_| | (_| | | | | |/ / (_| | |_| | (_) | | | |     | |  | | (_| | | | | | | |_\n    //   \\___/|_|  \\__, |\\__,_|_| |_|_/___\\__,_|\\__|_|\\___/|_| |_|     |_|  |_|\\__, |_| |_| |_|\\__|\n    //             |___/                                                       |___/\n\n    function createOrganization(bytes32 orgName, address[] members) external {\n\n        requireOrgExistenceConstraint(orgName, false);\n\n        OrganizationRegistration memory organization;\n        orgsByName[orgName] = organization;\n        orgsByName[orgName].organizationName = orgName;\n        orgsByName[orgName].owner = msg.sender;\n        orgsByName[orgName].globalOrgIndex = orgKeys.length;\n        orgKeys.push(orgName);\n\n        addOrganizationMembersInternal(orgName, members);\n\n        emit OrganizationCreated(orgName, orgName);\n    }\n\n    function changeOrganizationOwner(bytes32 orgName, address newOwner) external {\n\n        requireOrgExistenceConstraint(orgName, true);\n        requireAuthorization(orgName, false);\n\n        orgsByName[orgName].owner = newOwner;\n\n        emit OrganizationModified(orgName, orgName);\n    }\n\n    function addOrganizationMembers(bytes32 orgName, address[] newMembers) external {\n\n        requireOrgExistenceConstraint(orgName, true);\n        requireAuthorization(orgName, true);\n\n        addOrganizationMembersInternal(orgName, newMembers);\n\n        emit OrganizationModified(orgName, orgName);\n    }\n\n    function addOrganizationMembersInternal(bytes32 orgName, address[] newMembers) internal {\n        for (uint i = 0; i < newMembers.length; i++) {\n            if (orgsByName[orgName].members[newMembers[i]] == 0) {\n                orgsByName[orgName].memberKeys.push(newMembers[i]);\n                orgsByName[orgName].members[newMembers[i]] = orgsByName[orgName].memberKeys.length;\n            }\n        }\n    }\n\n    function removeOrganizationMembers(bytes32 orgName, address[] existingMembers) external {\n\n        requireOrgExistenceConstraint(orgName, true);\n        requireAuthorization(orgName, true);\n\n        for (uint i = 0; i < existingMembers.length; i++) {\n            removeOrganizationMemberInternal(orgName, existingMembers[i]);\n        }\n\n        emit OrganizationModified(orgName, orgName);\n    }\n\n    function removeOrganizationMemberInternal(bytes32 orgName, address existingMember) internal {\n        // see \"member indexing note\"\n        if (orgsByName[orgName].members[existingMember] != 0) {\n            uint storedIndexToRemove = orgsByName[orgName].members[existingMember];\n            address memberToMove = orgsByName[orgName].memberKeys[orgsByName[orgName].memberKeys.length - 1];\n\n            // no-op if we are deleting the last entry\n            if (orgsByName[orgName].memberKeys[storedIndexToRemove - 1] != memberToMove) {\n                // swap lut entries\n                orgsByName[orgName].memberKeys[storedIndexToRemove - 1] = memberToMove;\n                orgsByName[orgName].members[memberToMove] = storedIndexToRemove;\n            }\n\n            // shorten keys array\n            orgsByName[orgName].memberKeys.length--;\n\n            // delete the mapping entry\n            delete orgsByName[orgName].members[existingMember];\n        }\n    }\n\n    function deleteOrganization(bytes32 orgName) external {\n\n        requireOrgExistenceConstraint(orgName, true);\n        requireAuthorization(orgName, false);\n\n        for (uint serviceIndex = orgsByName[orgName].serviceKeys.length; serviceIndex > 0; serviceIndex--) {\n            deleteServiceRegistrationInternal(orgName, orgsByName[orgName].serviceKeys[serviceIndex-1]);\n        }\n\n        for (uint repoIndex = orgsByName[orgName].typeRepoKeys.length; repoIndex > 0; repoIndex--) {\n            deleteTypeRepositoryRegistrationInternal(orgName, orgsByName[orgName].typeRepoKeys[repoIndex-1]);\n        }\n\n        for (uint memberIndex = orgsByName[orgName].memberKeys.length; memberIndex > 0; memberIndex--) {\n            removeOrganizationMemberInternal(orgName, orgsByName[orgName].memberKeys[memberIndex-1]);\n        }\n\n        // swap lut entries\n        uint    indexToUpdate = orgsByName[orgName].globalOrgIndex;\n        bytes32 orgToUpdate   = orgKeys[orgKeys.length-1];\n\n        if (orgKeys[indexToUpdate] != orgToUpdate) {\n            orgKeys[indexToUpdate] = orgToUpdate;\n            orgsByName[orgToUpdate].globalOrgIndex = indexToUpdate;\n        }\n\n        // shorten keys array\n        orgKeys.length--;\n\n        // delete contents of organization registration\n        delete orgsByName[orgName];\n\n        emit OrganizationDeleted(orgName, orgName);\n    }\n\n    //   ____                  _                __  __                 _\n    //  / ___|  ___ _ ____   ___) ___ ___      |  \\/  | __ _ _ __ ___ | |_\n    //  \\___ \\ / _ \\ '__\\ \\ / / |/ __/ _ \\     | |\\/| |/ _` | '_ ` _ \\| __|\n    //   ___) |  __/ |   \\ V /| | (__  __/     | |  | | (_| | | | | | | |_\n    //  |____/ \\___|_|    \\_/ |_|\\___\\___|     |_|  |_|\\__, |_| |_| |_|\\__|\n    //                                                 |___/\n\n    function createServiceRegistration(bytes32 orgName, bytes32 serviceName, bytes32 servicePath, address agentAddress, bytes32[] tags) external {\n\n        requireOrgExistenceConstraint(orgName, true);\n        requireAuthorization(orgName, true);\n        requireServiceExistenceConstraint(orgName, serviceName, false);\n\n        ServiceRegistration memory service;\n        orgsByName[orgName].servicesByName[serviceName] = service;\n        orgsByName[orgName].servicesByName[serviceName].serviceName = serviceName;\n        orgsByName[orgName].servicesByName[serviceName].servicePath = servicePath;\n        orgsByName[orgName].servicesByName[serviceName].agentAddress = agentAddress;\n        orgsByName[orgName].servicesByName[serviceName].orgServiceIndex = orgsByName[orgName].serviceKeys.length;\n        orgsByName[orgName].serviceKeys.push(serviceName);\n\n        for (uint i = 0; i < tags.length; i++) {\n            addTagToServiceRegistration(orgName, serviceName, tags[i]);\n        }\n\n        emit ServiceCreated(orgName, serviceName, orgName, serviceName);\n    }\n\n    function updateServiceRegistration(bytes32 orgName, bytes32 serviceName, bytes32 servicePath, address agentAddress) external {\n\n        requireOrgExistenceConstraint(orgName, true);\n        requireAuthorization(orgName, true);\n        requireServiceExistenceConstraint(orgName, serviceName, true);\n\n        // update the servicePath and agentAddress\n        orgsByName[orgName].servicesByName[serviceName].servicePath = servicePath;\n        orgsByName[orgName].servicesByName[serviceName].agentAddress = agentAddress;\n\n        emit ServiceModified(orgName, serviceName, orgName, serviceName);\n    }\n\n    function addTagsToServiceRegistration(bytes32 orgName, bytes32 serviceName, bytes32[] tags) external {\n\n        requireOrgExistenceConstraint(orgName, true);\n        requireAuthorization(orgName, true);\n        requireServiceExistenceConstraint(orgName, serviceName, true);\n\n        for (uint i = 0; i < tags.length; i++) {\n            addTagToServiceRegistration(orgName, serviceName, tags[i]);\n        }\n\n        emit ServiceModified(orgName, serviceName, orgName, serviceName);\n    }\n\n    function addTagToServiceRegistration(bytes32 orgName, bytes32 serviceName, bytes32 tagName) internal {\n\n        // no-op if tag already exists\n        if (orgsByName[orgName].servicesByName[serviceName].tagsByName[tagName].tagName == bytes32(0x0)) {\n            // add the tag to the service level tag index\n            Tag memory tagObj;\n            orgsByName[orgName].servicesByName[serviceName].tagsByName[tagName] = tagObj;\n            orgsByName[orgName].servicesByName[serviceName].tagsByName[tagName].tagName = tagName;\n            orgsByName[orgName].servicesByName[serviceName].tagsByName[tagName].itemTagIndex = orgsByName[orgName].servicesByName[serviceName].tags.length;\n            orgsByName[orgName].servicesByName[serviceName].tagsByName[tagName].globalTagIndex = servicesByTag[tagName].orgNames.length;\n            orgsByName[orgName].servicesByName[serviceName].tags.push(tagName);\n\n            // add the service to the global tag index creating a list object for this tag if it does not already exist\n            if (!servicesByTag[tagName].valid) {\n                ServiceOrTypeRepositoryList memory listObj;\n                listObj.valid = true;\n                servicesByTag[tagName] = listObj;\n                serviceTags.push(tagName);\n            }\n\n            servicesByTag[tagName].orgNames.push(orgName);\n            servicesByTag[tagName].itemNames.push(serviceName);\n        }\n    }\n\n    function setMetadataIPFSHashInServiceRegistration(bytes32 orgName, bytes32 serviceName, bytes metadataIPFSHash) external {\n        requireOrgExistenceConstraint(orgName, true);\n        requireAuthorization(orgName, true);\n        requireServiceExistenceConstraint(orgName, serviceName, true);\n        orgsByName[orgName].servicesByName[serviceName].metadataIPFSHash = metadataIPFSHash;\n    }\n\n    function removeTagsFromServiceRegistration(bytes32 orgName, bytes32 serviceName, bytes32[] tags) external {\n\n        requireOrgExistenceConstraint(orgName, true);\n        requireAuthorization(orgName, true);\n        requireServiceExistenceConstraint(orgName, serviceName, true);\n\n        for (uint i = 0; i < tags.length; i++) {\n            removeTagFromServiceRegistration(orgName, serviceName, tags[i]);\n        }\n\n        emit ServiceModified(orgName, serviceName, orgName, serviceName);\n    }\n\n    function removeTagFromServiceRegistration(bytes32 orgName, bytes32 serviceName, bytes32 tagName) internal {\n\n        // no-op if tag does not exist\n        if (orgsByName[orgName].servicesByName[serviceName].tagsByName[tagName].tagName != bytes32(0x0)) {\n\n            // swap service registration lut entries\n            uint tagIndexToReplace = orgsByName[orgName].servicesByName[serviceName].tagsByName[tagName].itemTagIndex;\n            bytes32 tagNameToMove = orgsByName[orgName].servicesByName[serviceName].tags[orgsByName[orgName].servicesByName[serviceName].tags.length-1];\n\n            // no-op if we are deleting the last item\n            if (tagIndexToReplace != orgsByName[orgName].servicesByName[serviceName].tags.length-1) {\n                orgsByName[orgName].servicesByName[serviceName].tags[tagIndexToReplace] = tagNameToMove;\n                orgsByName[orgName].servicesByName[serviceName].tagsByName[tagNameToMove].itemTagIndex = tagIndexToReplace;\n            }\n\n            orgsByName[orgName].servicesByName[serviceName].tags.length--;\n\n            // swap global tag index lut entries\n            tagIndexToReplace = orgsByName[orgName].servicesByName[serviceName].tagsByName[tagName].globalTagIndex;\n            uint tagIndexToMove = servicesByTag[tagName].orgNames.length-1;\n\n            // no-op if we are deleting the last item\n            if (tagIndexToMove != tagIndexToReplace) {\n                bytes32 orgNameToMove  = servicesByTag[tagName].orgNames[tagIndexToMove];\n                bytes32 itemNameToMove = servicesByTag[tagName].itemNames[tagIndexToMove];\n\n                servicesByTag[tagName].orgNames[tagIndexToReplace] = orgNameToMove;\n                servicesByTag[tagName].itemNames[tagIndexToReplace] = itemNameToMove;\n\n                orgsByName[orgNameToMove].servicesByName[itemNameToMove].tagsByName[tagName].globalTagIndex = tagIndexToReplace;\n            }\n\n            servicesByTag[tagName].orgNames.length--;\n            servicesByTag[tagName].itemNames.length--;\n\n            // delete contents of the tag entry\n            delete orgsByName[orgName].servicesByName[serviceName].tagsByName[tagName];\n        }\n    }\n\n    function deleteServiceRegistration(bytes32 orgName, bytes32 serviceName) external {\n\n        requireOrgExistenceConstraint(orgName, true);\n        requireAuthorization(orgName, true);\n        requireServiceExistenceConstraint(orgName, serviceName, true);\n\n        deleteServiceRegistrationInternal(orgName, serviceName);\n\n        emit ServiceDeleted(orgName, serviceName, orgName, serviceName);\n    }\n\n    function deleteServiceRegistrationInternal(bytes32 orgName, bytes32 serviceName) internal {\n        // delete the tags associated with the service\n        for (uint i = orgsByName[orgName].servicesByName[serviceName].tags.length; i > 0; i--) {\n            removeTagFromServiceRegistration(orgName, serviceName, orgsByName[orgName].servicesByName[serviceName].tags[i-1]);\n        }\n\n        // swap lut entries\n        uint    indexToUpdate   = orgsByName[orgName].servicesByName[serviceName].orgServiceIndex;\n        bytes32 serviceToUpdate = orgsByName[orgName].serviceKeys[orgsByName[orgName].serviceKeys.length-1];\n\n        if (orgsByName[orgName].serviceKeys[indexToUpdate] != serviceToUpdate) {\n            orgsByName[orgName].serviceKeys[indexToUpdate] = serviceToUpdate;\n            orgsByName[orgName].servicesByName[serviceToUpdate].orgServiceIndex = indexToUpdate;\n        }\n\n        orgsByName[orgName].serviceKeys.length--;\n\n        // delete contents of service registration\n        delete orgsByName[orgName].servicesByName[serviceName];\n    }\n\n    //   _____                        ____                        __  __                 _\n    //  |_   _|   _ _ __   ___       |  _ \\ ___ _ __   ___       |  \\/  | __ _ _ __ ___ | |_\n    //    | || | | | '_ \\ / _ \\      | |_) / _ \\ '_ \\ / _ \\      | |\\/| |/ _` | '_ ` _ \\| __|\n    //    | || |_| | |_) |  __/      |  _ <  __/ |_) | (_) |     | |  | | (_| | | | | | | |_\n    //    |_| \\__, | .__/ \\___|      |_| \\_\\___| .__/ \\___/      |_|  |_|\\__, |_| |_| |_|\\__|\n    //        |___/|_|                         |_|                       |___/\n\n    function createTypeRepositoryRegistration(bytes32 orgName, bytes32 repositoryName, bytes32 repositoryPath,\n            bytes repositoryURI, bytes32[] tags) external {\n\n        requireOrgExistenceConstraint(orgName, true);\n        requireAuthorization(orgName, true);\n        requireTypeRepositoryExistenceConstraint(orgName, repositoryName, false);\n\n        TypeRepositoryRegistration memory typeRepo;\n        orgsByName[orgName].typeReposByName[repositoryName] = typeRepo;\n        orgsByName[orgName].typeReposByName[repositoryName].repositoryName = repositoryName;\n        orgsByName[orgName].typeReposByName[repositoryName].repositoryPath = repositoryPath;\n        orgsByName[orgName].typeReposByName[repositoryName].repositoryURI = repositoryURI;\n        orgsByName[orgName].typeReposByName[repositoryName].orgTypeRepoIndex = orgsByName[orgName].typeRepoKeys.length;\n        orgsByName[orgName].typeRepoKeys.push(repositoryName);\n\n        for (uint i = 0; i < tags.length; i++) {\n            addTagToTypeRepositoryRegistration(orgName, repositoryName, tags[i]);\n        }\n\n        emit TypeRepositoryCreated(orgName, repositoryName, orgName, repositoryName);\n    }\n\n    function updateTypeRepositoryRegistration(bytes32 orgName, bytes32 repositoryName, bytes32 repositoryPath,\n        bytes repositoryURI) external {\n\n        requireOrgExistenceConstraint(orgName, true);\n        requireAuthorization(orgName, true);\n        requireTypeRepositoryExistenceConstraint(orgName, repositoryName, true);\n\n        orgsByName[orgName].typeReposByName[repositoryName].repositoryPath = repositoryPath;\n        orgsByName[orgName].typeReposByName[repositoryName].repositoryURI = repositoryURI;\n\n        emit TypeRepositoryModified(orgName, repositoryName, orgName, repositoryName);\n    }\n\n    function addTagsToTypeRepositoryRegistration(bytes32 orgName, bytes32 repositoryName, bytes32[] tags) external {\n\n        requireOrgExistenceConstraint(orgName, true);\n        requireAuthorization(orgName, true);\n        requireTypeRepositoryExistenceConstraint(orgName, repositoryName, true);\n\n        for (uint i = 0; i < tags.length; i++) {\n            addTagToTypeRepositoryRegistration(orgName, repositoryName, tags[i]);\n        }\n\n        emit TypeRepositoryModified(orgName, repositoryName, orgName, repositoryName);\n    }\n\n    function addTagToTypeRepositoryRegistration(bytes32 orgName, bytes32 repositoryName, bytes32 tagName) internal {\n\n        // no-op if tag already exists\n        if (orgsByName[orgName].typeReposByName[repositoryName].tagsByName[tagName].tagName == bytes32(0x0)) {\n            // add the tag to the type repository level tag index\n            Tag memory tagObj;\n            orgsByName[orgName].typeReposByName[repositoryName].tagsByName[tagName] = tagObj;\n            orgsByName[orgName].typeReposByName[repositoryName].tagsByName[tagName].tagName = tagName;\n            orgsByName[orgName].typeReposByName[repositoryName].tagsByName[tagName].itemTagIndex = orgsByName[orgName].typeReposByName[repositoryName].tags.length;\n            orgsByName[orgName].typeReposByName[repositoryName].tagsByName[tagName].globalTagIndex = typeReposByTag[tagName].orgNames.length;\n            orgsByName[orgName].typeReposByName[repositoryName].tags.push(tagName);\n\n            // add the type repository to the global tag index creating a list object for this tag if it does not already exist\n            if (!typeReposByTag[tagName].valid) {\n                ServiceOrTypeRepositoryList memory listObj;\n                listObj.valid = true;\n                typeReposByTag[tagName] = listObj;\n                typeRepoTags.push(tagName);\n            }\n            typeReposByTag[tagName].orgNames.push(orgName);\n            typeReposByTag[tagName].itemNames.push(repositoryName);\n        }\n    }\n\n    function removeTagsFromTypeRepositoryRegistration(bytes32 orgName, bytes32 repositoryName, bytes32[] tags) external {\n\n        requireOrgExistenceConstraint(orgName, true);\n        requireAuthorization(orgName, true);\n        requireTypeRepositoryExistenceConstraint(orgName, repositoryName, true);\n\n        for (uint i = 0; i < tags.length; i++) {\n            removeTagFromTypeRepositoryRegistration(orgName, repositoryName, tags[i]);\n        }\n\n        emit TypeRepositoryModified(orgName, repositoryName, orgName, repositoryName);\n    }\n\n    function removeTagFromTypeRepositoryRegistration(bytes32 orgName, bytes32 repositoryName, bytes32 tagName) internal {\n\n        // no-op if tag doesnt exist\n        if (orgsByName[orgName].typeReposByName[repositoryName].tagsByName[tagName].tagName != bytes32(0x0)) {\n\n            // swap type repository registration lut entries\n            uint tagIndexToReplace = orgsByName[orgName].typeReposByName[repositoryName].tagsByName[tagName].itemTagIndex;\n            bytes32 tagNameToMove = orgsByName[orgName].typeReposByName[repositoryName].tags[orgsByName[orgName].typeReposByName[repositoryName].tags.length-1];\n\n            // no-op if we are deleting the last item\n            if (tagIndexToReplace != orgsByName[orgName].typeReposByName[repositoryName].tags.length-1) {\n\n                orgsByName[orgName].typeReposByName[repositoryName].tags[tagIndexToReplace] = tagNameToMove;\n                orgsByName[orgName].typeReposByName[repositoryName].tagsByName[tagNameToMove].itemTagIndex = tagIndexToReplace;\n            }\n\n            orgsByName[orgName].typeReposByName[repositoryName].tags.length--;\n\n            // swap global tag index lut entries\n            tagIndexToReplace = orgsByName[orgName].typeReposByName[repositoryName].tagsByName[tagName].globalTagIndex;\n            uint tagIndexToMove = typeReposByTag[tagName].orgNames.length-1;\n\n            // no-op if we are deleting the last item\n            if (tagIndexToMove != tagIndexToReplace) {\n                bytes32 orgNameToMove  = typeReposByTag[tagName].orgNames[tagIndexToMove];\n                bytes32 repoNameToMove = typeReposByTag[tagName].itemNames[tagIndexToMove];\n\n                typeReposByTag[tagName].orgNames[tagIndexToReplace]  = orgNameToMove;\n                typeReposByTag[tagName].itemNames[tagIndexToReplace] = repoNameToMove;\n\n                orgsByName[orgNameToMove].typeReposByName[repoNameToMove].tagsByName[tagName].globalTagIndex = tagIndexToReplace;\n            }\n\n            typeReposByTag[tagName].orgNames.length--;\n            typeReposByTag[tagName].itemNames.length--;\n\n            // delete contents of the tag entry\n            delete orgsByName[orgName].typeReposByName[repositoryName].tagsByName[tagName];\n        }\n    }\n\n    function deleteTypeRepositoryRegistration(bytes32 orgName, bytes32 repositoryName) external {\n\n        requireOrgExistenceConstraint(orgName, true);\n        requireAuthorization(orgName, true);\n        requireTypeRepositoryExistenceConstraint(orgName, repositoryName, true);\n\n        deleteTypeRepositoryRegistrationInternal(orgName, repositoryName);\n\n        emit TypeRepositoryDeleted(orgName, repositoryName, orgName, repositoryName);\n    }\n\n    function deleteTypeRepositoryRegistrationInternal(bytes32 orgName, bytes32 repositoryName) internal {\n\n        // delete the tags associated with the type repo\n        for (uint i = orgsByName[orgName].typeReposByName[repositoryName].tags.length; i > 0; i--) {\n            removeTagFromTypeRepositoryRegistration(orgName, repositoryName, orgsByName[orgName].typeReposByName[repositoryName].tags[i-1]);\n        }\n\n        // swap lut entries\n        uint    indexToUpdate    = orgsByName[orgName].typeReposByName[repositoryName].orgTypeRepoIndex;\n        bytes32 typeRepoToUpdate = orgsByName[orgName].typeRepoKeys[orgsByName[orgName].typeRepoKeys.length-1];\n\n        // no-op if we are deleting the last item\n        if (orgsByName[orgName].typeRepoKeys[indexToUpdate] != typeRepoToUpdate) {\n            orgsByName[orgName].typeRepoKeys[indexToUpdate] = typeRepoToUpdate;\n            orgsByName[orgName].typeReposByName[typeRepoToUpdate].orgTypeRepoIndex = indexToUpdate;\n        }\n\n        orgsByName[orgName].typeRepoKeys.length--;\n\n        // delete contents of repo registration\n        delete orgsByName[orgName].typeReposByName[repositoryName];\n    }\n\n    //    ____      _   _\n    //   / ___| ___| |_| |_ ___ _ __ ___\n    //  | |  _ / _ \\ __| __/ _ \\ '__/ __|\n    //  | |_| |  __/ |_| |_  __/ |  \\__ \\\n    //   \\____|\\___|\\__|\\__\\___|_|  |___/\n    //\n\n    function listOrganizations() external view returns (bytes32[] orgNames) {\n        return orgKeys;\n    }\n\n    function getOrganizationByName(bytes32 orgName) external view\n            returns(bool found, bytes32 name, address owner, address[] members, bytes32[] serviceNames, bytes32[] repositoryNames) {\n\n        // check to see if this organization exists\n        if(orgsByName[orgName].organizationName == bytes32(0x0)) {\n            found = false;\n            return;\n        }\n\n        found = true;\n        name = orgsByName[orgName].organizationName;\n        owner = orgsByName[orgName].owner;\n        members = orgsByName[orgName].memberKeys;\n        serviceNames = orgsByName[orgName].serviceKeys;\n        repositoryNames = orgsByName[orgName].typeRepoKeys;\n    }\n\n    function listServicesForOrganization(bytes32 orgName) external view returns (bool found, bytes32[] serviceNames) {\n\n        // check to see if this organization exists\n        if(orgsByName[orgName].organizationName == bytes32(0x0)) {\n            found = false;\n            return;\n        }\n\n        found = true;\n        serviceNames = orgsByName[orgName].serviceKeys;\n    }\n\n    function getServiceRegistrationByName(bytes32 orgName, bytes32 serviceName) external view\n            returns (bool found, bytes32 name, bytes32 path, address agentAddress, bytes32[] tags) {\n\n        // check to see if this organization exists\n        if(orgsByName[orgName].organizationName == bytes32(0x0)) {\n            found = false;\n            return;\n        }\n\n        // check to see if this repo exists\n        if(orgsByName[orgName].servicesByName[serviceName].serviceName == bytes32(0x0)) {\n            found = false;\n            return;\n        }\n\n        found = true;\n        name = orgsByName[orgName].servicesByName[serviceName].serviceName;\n        path = orgsByName[orgName].servicesByName[serviceName].servicePath;\n        agentAddress = orgsByName[orgName].servicesByName[serviceName].agentAddress;\n        tags = orgsByName[orgName].servicesByName[serviceName].tags;\n    }\n\n    function getMetadataIPFSHash(bytes32 orgName, bytes32 serviceName) external view\n            returns (bool found, bytes metadataIPFSHash) {\n\n        // check to see if this organization exists\n        if(orgsByName[orgName].organizationName == bytes32(0x0)) {\n            found = false;\n            return;\n        }\n\n        // check to see if this repo exists\n        if(orgsByName[orgName].servicesByName[serviceName].serviceName == bytes32(0x0)) {\n            found = false;\n            return;\n        }\n\n        found = true;\n        metadataIPFSHash = orgsByName[orgName].servicesByName[serviceName].metadataIPFSHash;\n    }\n\n    function listTypeRepositoriesForOrganization(bytes32 orgName) external view returns (bool found, bytes32[] repositoryNames) {\n\n        // check to see if this organization exists\n        if(orgsByName[orgName].organizationName == bytes32(0x0)) {\n            found = false;\n            return;\n        }\n\n        found = true;\n        repositoryNames = orgsByName[orgName].typeRepoKeys;\n    }\n\n    function getTypeRepositoryByName(bytes32 orgName, bytes32 repositoryName) external view\n            returns (bool found, bytes32 name, bytes32 path, bytes uri, bytes32[] tags) {\n\n        // check to see if this organization exists\n        if(orgsByName[orgName].organizationName == bytes32(0x0)) {\n            found = false;\n            return;\n        }\n\n        // check to see if this repo exists\n        if(orgsByName[orgName].typeReposByName[repositoryName].repositoryName == bytes32(0x0)) {\n            found = false;\n            return;\n        }\n\n        found = true;\n        name = repositoryName;\n        path = orgsByName[orgName].typeReposByName[repositoryName].repositoryPath;\n        uri = orgsByName[orgName].typeReposByName[repositoryName].repositoryURI;\n        tags = orgsByName[orgName].typeReposByName[repositoryName].tags;\n    }\n\n    function listServiceTags() external view returns (bytes32[] tags) {\n        return serviceTags;\n    }\n\n    function listServicesForTag(bytes32 tag) external view returns (bytes32[] orgNames, bytes32[] serviceNames) {\n        orgNames = servicesByTag[tag].orgNames;\n        serviceNames = servicesByTag[tag].itemNames;\n    }\n\n    function listTypeRepositoryTags() external view returns (bytes32[] tags) {\n        return typeRepoTags;\n    }\n\n    function listTypeRepositoriesForTag(bytes32 tag) external view returns (bytes32[] orgNames, bytes32[] repositoryNames) {\n        orgNames = typeReposByTag[tag].orgNames;\n        repositoryNames = typeReposByTag[tag].itemNames;\n    }\n\n    // ERC165: https://eips.ethereum.org/EIPS/eip-165\n    function supportsInterface(bytes4 interfaceID) external view returns (bool) {\n        return\n            interfaceID == this.supportsInterface.selector || // ERC165\n            interfaceID == 0xbd523993; // IRegistry\n    }\n}\n",
  "sourcePath": "/Users/tiero/go/src/github.com/tiero/reputation/resources/platform-contracts/contracts/Registry.sol",
  "compiler": {
    "name": "solc",
    "version": "0.4.24+commit.e67f0147.Emscripten.clang"
  },
  "schemaVersion": "2.0.1",
  "updatedAt": "2018-11-14T18:29:56.539Z"
}